{
  "contractName": "BusinessContract",
  "abi": [
    {
      "inputs": [],
      "payable": false,
      "stateMutability": "nonpayable",
      "type": "constructor"
    },
    {
      "constant": false,
      "inputs": [
        {
          "name": "_count",
          "type": "uint256"
        }
      ],
      "name": "setCount",
      "outputs": [],
      "payable": false,
      "stateMutability": "nonpayable",
      "type": "function"
    },
    {
      "constant": true,
      "inputs": [],
      "name": "getCount",
      "outputs": [
        {
          "name": "",
          "type": "uint256"
        }
      ],
      "payable": false,
      "stateMutability": "view",
      "type": "function"
    }
  ],
  "bytecode": "0x608060405234801561001057600080fd5b50600260008190555060ec806100276000396000f3fe6080604052600436106049576000357c0100000000000000000000000000000000000000000000000000000000900463ffffffff168063a87d942c14604e578063d14e62b8146076575b600080fd5b348015605957600080fd5b50606060ad565b6040518082815260200191505060405180910390f35b348015608157600080fd5b5060ab60048036036020811015609657600080fd5b810190808035906020019092919050505060b6565b005b60008054905090565b806000819055505056fea165627a7a7230582046b42c3b270fa17bbbf16595a4c75c2b3d5f53e8d76af2590f5b84946d53efe60029",
  "source": "pragma solidity ^0.5.0;\n\n\ncontract BusinessContract {\n  uint256 count;\n\n  constructor() public {\n    count = 2;\n  }\n\n  // 引数はuint256じゃないとdelegatecall呼べない。uintだとダメだった。\n  function setCount(uint256 _count) public {\n    count = _count;\n  }\n\n  function getCount() public view returns (uint256) {\n    return count;\n  }\n\n}\n",
  "sourcePath": "C:\\Users\\NaotoHama\\Documents\\blockchain\\sample-upgradable-contract\\contracts\\BusinessContract.sol",
  "compiler": {
    "name": "solc",
    "version": "0.5.0+commit.1d4f565a.Emscripten.clang"
  },
  "schemaVersion": "3.0.6",
  "updatedAt": "2019-04-01T15:02:46.304Z",
  "devdoc": {
    "methods": {}
  },
  "userdoc": {
    "methods": {}
  }
}