{
  "contractName": "BusinessContract2",
  "abi": [
    {
      "constant": true,
      "inputs": [],
      "name": "getCount",
      "outputs": [
        {
          "name": "",
          "type": "uint256"
        }
      ],
      "payable": false,
      "stateMutability": "view",
      "type": "function",
      "signature": "0xa87d942c"
    },
    {
      "constant": false,
      "inputs": [
        {
          "name": "_count",
          "type": "uint256"
        }
      ],
      "name": "setCount",
      "outputs": [],
      "payable": false,
      "stateMutability": "nonpayable",
      "type": "function",
      "signature": "0xd14e62b8"
    },
    {
      "inputs": [],
      "payable": false,
      "stateMutability": "nonpayable",
      "type": "constructor",
      "signature": "constructor"
    },
    {
      "constant": false,
      "inputs": [
        {
          "name": "_id",
          "type": "uint256"
        },
        {
          "name": "_point",
          "type": "uint256"
        }
      ],
      "name": "setPoint",
      "outputs": [],
      "payable": false,
      "stateMutability": "nonpayable",
      "type": "function",
      "signature": "0x4b5bdd8e"
    },
    {
      "constant": true,
      "inputs": [
        {
          "name": "_id",
          "type": "uint256"
        }
      ],
      "name": "getPoint",
      "outputs": [
        {
          "name": "",
          "type": "uint256"
        }
      ],
      "payable": false,
      "stateMutability": "view",
      "type": "function",
      "signature": "0x869f1c8e"
    }
  ],
  "bytecode": "0x608060405234801561001057600080fd5b50600260008190555061303960016000808152602001908152602001600020819055506101d9806100426000396000f3fe608060405260043610610062576000357c0100000000000000000000000000000000000000000000000000000000900463ffffffff1680634b5bdd8e14610067578063869f1c8e146100ac578063a87d942c146100fb578063d14e62b814610126575b600080fd5b34801561007357600080fd5b506100aa6004803603604081101561008a57600080fd5b810190808035906020019092919080359060200190929190505050610161565b005b3480156100b857600080fd5b506100e5600480360360208110156100cf57600080fd5b810190808035906020019092919050505061017d565b6040518082815260200191505060405180910390f35b34801561010757600080fd5b5061011061019a565b6040518082815260200191505060405180910390f35b34801561013257600080fd5b5061015f6004803603602081101561014957600080fd5b81019080803590602001909291905050506101a3565b005b8060016000848152602001908152602001600020819055505050565b600060016000838152602001908152602001600020549050919050565b60008054905090565b806000819055505056fea165627a7a7230582092df4b4c87606a41685e6631bbb69296b796b43cf2804c573c111406898eb4570029",
  "source": "pragma solidity ^0.5.0;\nimport './BusinessContract.sol';\n\ncontract BusinessContract2 is BusinessContract {\n  mapping (uint256 => uint256) point;\n\n  constructor() public {\n    point[0] = 12345;\n  }\n\n  function setPoint(uint256 _id, uint256 _point) public {\n    point[_id] = _point;\n  }\n\n  function getPoint(uint256 _id) public view returns (uint256) {\n    return point[_id];\n  }\n}\n",
  "sourcePath": "C:/Users/NaotoHama/Documents/blockchain/sample-upgradable-contract/contracts/BusinessContract2.sol",
  "compiler": {
    "name": "solc",
    "version": "0.5.0+commit.1d4f565a.Emscripten.clang"
  },
  "schemaVersion": "3.0.6",
  "updatedAt": "2019-04-01T14:27:01.902Z",
  "devdoc": {
    "methods": {}
  },
  "userdoc": {
    "methods": {}
  }
}