{
  "contractName": "ProxyContract",
  "abi": [
    {
      "inputs": [],
      "payable": false,
      "stateMutability": "nonpayable",
      "type": "constructor",
      "signature": "constructor"
    },
    {
      "constant": false,
      "inputs": [
        {
          "name": "_address",
          "type": "address"
        }
      ],
      "name": "setBusinessContract",
      "outputs": [],
      "payable": false,
      "stateMutability": "nonpayable",
      "type": "function",
      "signature": "0xb5c3bc41"
    },
    {
      "constant": false,
      "inputs": [
        {
          "name": "_method",
          "type": "string"
        },
        {
          "name": "_arugument",
          "type": "uint256[]"
        }
      ],
      "name": "delegateCallBusiness",
      "outputs": [
        {
          "name": "",
          "type": "bool"
        },
        {
          "name": "",
          "type": "bytes"
        }
      ],
      "payable": false,
      "stateMutability": "nonpayable",
      "type": "function",
      "signature": "0x543f6301"
    },
    {
      "constant": true,
      "inputs": [
        {
          "name": "slot_id",
          "type": "uint256"
        }
      ],
      "name": "get",
      "outputs": [
        {
          "name": "",
          "type": "uint256"
        }
      ],
      "payable": false,
      "stateMutability": "view",
      "type": "function",
      "signature": "0x9507d39a"
    }
  ],
  "bytecode": "0x608060405234801561001057600080fd5b506104ed806100206000396000f3fe608060405260043610610057576000357c0100000000000000000000000000000000000000000000000000000000900463ffffffff168063543f63011461005c5780639507d39a1461023c578063b5c3bc411461028b575b600080fd5b34801561006857600080fd5b506101b66004803603604081101561007f57600080fd5b810190808035906020019064010000000081111561009c57600080fd5b8201836020820111156100ae57600080fd5b803590602001918460018302840111640100000000831117156100d057600080fd5b91908080601f016020809104026020016040519081016040528093929190818152602001838380828437600081840152601f19601f8201169050808301925050505050505091929192908035906020019064010000000081111561013357600080fd5b82018360208201111561014557600080fd5b8035906020019184602083028401116401000000008311171561016757600080fd5b919080806020026020016040519081016040528093929190818152602001838360200280828437600081840152601f19601f8201169050808301925050505050505091929192905050506102dc565b604051808315151515815260200180602001828103825283818151815260200191508051906020019080838360005b838110156102005780820151818401526020810190506101e5565b50505050905090810190601f16801561022d5780820380516001836020036101000a031916815260200191505b50935050505060405180910390f35b34801561024857600080fd5b506102756004803603602081101561025f57600080fd5b8101908080359060200190929190505050610469565b6040518082815260200191505060405180910390f35b34801561029757600080fd5b506102da600480360360208110156102ae57600080fd5b81019080803573ffffffffffffffffffffffffffffffffffffffff16906020019092919050505061047d565b005b6000606060006060600260009054906101000a900473ffffffffffffffffffffffffffffffffffffffff1673ffffffffffffffffffffffffffffffffffffffff1686805190602001208660405160200180837bffffffffffffffffffffffffffffffffffffffffffffffffffffffff19167bffffffffffffffffffffffffffffffffffffffffffffffffffffffff19168152600401828051906020019060200280838360005b8381101561039d578082015181840152602081019050610382565b50505050905001925050506040516020818303038152906040526040518082805190602001908083835b6020831015156103ec57805182526020820191506020810190506020830392506103c7565b6001836020036101000a038019825116818451168082178552505050505050905001915050600060405180830381855af49150503d806000811461044c576040519150601f19603f3d011682016040523d82523d6000602084013e610451565b606091505b50809250819350505081819350935050509250929050565b600080825490508060019004915050919050565b80600260006101000a81548173ffffffffffffffffffffffffffffffffffffffff021916908373ffffffffffffffffffffffffffffffffffffffff1602179055505056fea165627a7a72305820d5dab710103e21e2b3d370f5b12e7f69957fc22a3623647677fc6b24e1b9a5580029",
  "source": "pragma solidity ^0.5.0;\nimport './BusinessContract.sol';\n\ncontract ProxyContract {\n  // Proxyコントラクトには変数を定義しない\n  uint count;\n  mapping ( uint => uint ) point;\n  address businessContract;\n\n  constructor() public {\n  }\n\n  function setBusinessContract(address _address) public {\n    businessContract = _address;\n  }\n\n  function delegateCallBusiness(string memory _method, uint256[] memory _arugument) public returns(bool, bytes memory) {\n    bool status;\n    bytes memory result;\n    (status, result) = businessContract.delegatecall(abi.encodePacked(bytes4(keccak256(bytes(_method))), _arugument));\n    return (status, result);\n  }\n\n\n  // get data by slot id\n  // slot idをクライアントが知る術がないので非推奨\n  function get(uint slot_id) public view returns (uint){\n    bytes32 r;\n    assembly {\n      r := sload(slot_id) //we load the slot number i\n    }\n    return uint(r);\n  }\n\n}",
  "sourcePath": "C:/Users/NaotoHama/Documents/blockchain/sample-upgradable-contract/contracts/ProxyContract.sol",
  "compiler": {
    "name": "solc",
    "version": "0.5.0+commit.1d4f565a.Emscripten.clang"
  },
  "schemaVersion": "3.0.6",
  "updatedAt": "2019-04-01T14:27:01.907Z",
  "devdoc": {
    "methods": {}
  },
  "userdoc": {
    "methods": {}
  }
}